:020000040800F2
:10000000E81E0020010100087B1D00089D18000863
:10001000791D000845050008952300080000000030
:100020000000000000000000000000002B2100087C
:100030004705000800000000292100082D210008C4
:100040001B0100081B0100081B0100081B01000820
:100050001B0100081B0100081B0100081B01000810
:10006000490500081B0100081B0100081B010008CE
:100070001B0100081B0100081B0100081B010008F0
:100080001B0100081B0100081B0100081B010008E0
:100090001B0100081B0100081B0100081B010008D0
:1000A000C9210008ED210008E1210008D521000840
:1000B0001B010008F92100081B0100081B010008B2
:1000C0001B0100081B0100081B0100081B010008A0
:1000D0001B0100081B0100081B0100081B01000890
:1000E0001B0100081B0100081B010008DFF80CD0F1
:1000F00000F0D8F90048004769330008E81E0020E6
:100100000648804706480047FEE7FEE7FEE7FEE7B1
:10011000FEE7FEE7FEE7FEE7FEE7FEE781210008D7
:10012000ED000008202A04DB203A21FA02F0002129
:10013000704721FA02F3D040C2F1200291400843F7
:1001400019467047D2B201E000F8012B491EFBD2DC
:1001500070470022F6E710B513460A4604461946D2
:10016000FFF7F0FF204610BDF0B480EA0102D40F83
:100170004200B2EB410F02D20246084611464A0045
:1001800042D0C30DDDB2C1F3C752AD1A202D35DA0E
:10019000C1F3160141F4000204B15242C5F1200638
:1001A00002FA06F12A411044B3EBD05F23D0C4B168
:1001B000012DA0EBC35009DCF0BC4FF0004202EA75
:1001C000C352DBB200F5000000F0E0B8400000F1DF
:1001D000807000EBC350A0F1807040EAD1704900FC
:1001E00009E0490841EAC071A0EBC35000F50000E6
:1001F000400800EBC350F0BC00F0BFB861420122E0
:1002000002EB4101001BF6E7F0BC704781F00041B2
:10021000AAE780F00040A7E72DE9F04D81EA03044A
:1002200004F0004B21F0004514464FF0000A23F083
:10023000004150EA050220D054EA01021DD0C5F366
:100240000A570246C5F31303C1F31300C1F30A565C
:1002500040F4801543F48013A7EB0608101BD64624
:1002600008F2FD3873EB050002D308F1010801E044
:1002700092185B41B8F1000F03DA00200146BDE897
:10028000F08D00204FF48011064684460EE0171BC7
:1002900073EB050705D3121B63EB050306434CEA1A
:1002A000010C49084FEA300092185B4150EA0107FF
:1002B000EDD152EA030012D082EA040083EA05017C
:1002C000084305D0101BAB4106D20122002306E0F3
:1002D00000224FF0004302E06FF0010253101AEBCE
:1002E00006004CEB085110EB0A0041EB0B01BDE896
:1002F000F04D00F079B896230022114600F046B880
:100300000EB540F2334102910021CDE900110A46B9
:100310000B4600F078F803B000BD20F00040C10D9E
:10032000C0F3160040F400007F2901DA0020704776
:10033000962903DCC1F19601C84070479639884080
:10034000704701F0004330B421F0004150EA01024F
:1003500006D00A0DA2F56072C1F31301002A02DC77
:1003600030BC00207047440F44EAC104C100E018CB
:1003700030BC00EBC250AFF300800029A8BF70472B
:10038000401C490008BF20F00100704710B4B0FACB
:1003900080FC00FA0CF050EA010404BF10BC704766
:1003A00049B1CCF1200421FA04F411FA0CF118BF80
:1003B000012121430843A3EB0C01CB1D4FEA00614F
:1003C0004FEA102042BF002010BC704700EBC35022
:1003D00010440029A4BF10BC7047401C490008BF4E
:1003E00020F0010010BC704710B5141E73F100041A
:1003F00008DA401C41F1000192185B411A4301D117
:1004000020F0010010BD2DE9F04D92469B4611B140
:10041000B1FA81F202E0B0FA80F22032904600F0A8
:1004200053F804460F4640EA0A0041EA0B015346DE
:100430005A46084313D0114653EA010019D0C8F1B7
:1004400040025046FFF76EFE05460E46504659469E
:10045000424600F039F8084305D0012004E0204668
:100460003946BDE8F08D0020054346EAE0762C438E
:1004700037430A986305E40AA0EB08000022FD0A4E
:1004800044EA47540A3002D500200146E9E7010555
:1004900010196941DDE9084500196941BDE8F04DD1
:1004A000A2E70000064C074D06E0E06840F00103BB
:1004B00094E8070098471034AC42F6D3FFF71AFED1
:1004C000783F0008983F0008202A04DB203A00FA11
:1004D00002F1002070479140C2F1200320FA03F39B
:1004E00019439040704770B58D1810F8014B14F007
:1004F000030201D110F8012B231106D110F8013BA2
:1005000003E010F8016B01F8016B521EF9D1ABB199
:1005100010F8012B04F00C048A1A0C2C03D0A2EB67
:1005200084129B1C08E010F8014BA2EB0422F8E7B0
:1005300012F8014B01F8014B5B1EF9D5A942D4D347
:10054000002070BDFEE77047042000F059B97047E5
:1005500006490020C8610648016941F004010161B3
:10056000016941F04001016170470000C81A002094
:1005700000200240064A0021D16106490A6942F082
:1005800002020A614861086940F040000861704752
:10059000C81A002000200240044B0022DA61044AFD
:1005A000136943F00103136101807047C81A0020EA
:1005B0000020024014480022C168CB06134904D52C
:1005C000CA6942F00202CA611022C3685B0705D5FE
:1005D000CB6943F00103CB6142F00402C369DB073E
:1005E00007D0CB6943F00403CB61C16921F001015D
:1005F000C161A2F58071013901D0C2607047C16943
:1006000021F00101C161704700200240C81A00209A
:1006100070B5054600F0FAF90646114C09E0681C71
:1006200007D025B100F0F2F9801BA84201D90320C0
:1006300070BDE068C007F2D1E068800601D52020D7
:10064000E060E068C00605D4E069C00702D1E06858
:10065000400703D5FFF7AEFF012070BD002070BD3D
:100660000020024070B5044600F0D0F90546601C39
:1006700002D004480078044400F0C8F9401BA042AE
:10068000FAD370BD401600202DE9F04705462648F4
:100690000F460126017E01290FD0012181460176F6
:1006A0002868DFF888804CF25034022808D0A2462F
:1006B0002046FFF7ADFFA8B131E00220BDE8F0878A
:1006C0002046FFF7A5FF08BB0120FFF741FF2046AA
:1006D000FFF79EFFD8F81010064621F00401C8F875
:1006E00010101CE04FF0FF303860AC6811E020467D
:1006F000FFF740FF5046FFF78BFFD8F810100600B9
:1007000021F00201C8F8101001D03C6007E004F5A8
:100710008064D5E9020100EB8120A042E7D80021E6
:1007200089F818103046C9E7C81A00200020024096
:100730000348016941F08001016100207047000019
:10074000002002402DE9F05F07461C48884600243F
:10075000017E15461E46012909D0012181460176F8
:100760004CF2503A5046FFF753FF18B122E00220F6
:10077000BDE8F09F012F02D0022F00D00427D346FE
:10078000DFF83CA0220128463146FFF7CBFC81B2BE
:1007900008EB4400FFF700FF5846FFF739FFDAF88F
:1007A000102022F00102CAF8102018B9641CE4B22B
:1007B000BC42E7D3002289F81820D9E7C81A0020E4
:1007C00000200240064900200A69120607D5054AA2
:1007D0004A60054A4A600969090600D50120704748
:1007E0000020024023016745AB89EFCD042803D1E7
:1007F0000248C168491CC160704700000000002029
:10080000044910B50A68024202D00860FFF7EEFF03
:1008100010BD0000140401402DE9F84FDFF8B89135
:10082000002409F1040A0AF1040B23460F270BF1F7
:10083000040EC9E00125A5402A40AA427DD1674E99
:10084000D1F804C0ACEB0608B44532D014DCBCF1DE
:10085000030F3AD009DCBCF1000F2AD0BCF1010F24
:100860001CD0BCF1020F31D11DE0BCF1110F17D02B
:10087000BCF1120F2AD119E0B8F5881F19D006DC97
:10088000B8F5803F15D0B8F5801F1FD111E0B8F53D
:10089000001F0ED0B8F5041F18D10AE0CB6815E090
:1008A000CB681B1D12E0CB6808330FE0CB680C331C
:1008B0000CE08B682BB1012B4FF0080303D045618E
:1008C00004E0042302E0056100E00023FF2A01D8D0
:1008D000064601E000F104064FEA840501D9A5F1BE
:1008E0002005D6F8008007FA05FC28EA0C0803FA70
:1008F00005F548EA0508C6F800804D68ED0062D5A8
:10090000374DAE6946F00106AE61AD6924F00306CD
:1009100005F001050095334D06EB050CDCF8085099
:10092000A607360F07FA06F825EA0805DFF8B880AB
:10093000404503D14FF0000817E044E0DFF8AC80F9
:10094000404502D14FF001080FE0DFF8A480404598
:1009500002D14FF0020808E0DFF89880404502D14C
:100960004FF0030801E04FF0040808FA06F848EADF
:100970000508CCF808804D68D9F80060ED034D46B5
:1009800001D5164300E096432E604D68DAF800600A
:10099000AD03554601D5164300E096432E604D68E1
:1009A000DBF80060ED025D4601D5164300E096439A
:1009B0002E604D68DEF80060AD02754601D5164325
:1009C00000E096432E60641C0D682A46E5407FF4E3
:1009D00031AFBDE8F88F00000004014000001110A5
:1009E000001002400000014000080140000C0140DE
:1009F00000100140001401408068084000D0012030
:100A000070470AB1016170470904FBE7014880683B
:100A1000704700004016002070B504001BD094F809
:100A20003D00002520B984F83C50204600F046F9EE
:100A3000242084F83D002068016821F00101016054
:100A400000F098FA4D4A6168914201D84C4900E0A3
:100A50004C49884201D2012070BD4B492368B0FB4C
:100A6000F1F15E6826F03F060E435E6063689342D4
:100A700006D94FF4967359434FF47A73B1FBF3F1EF
:100A80002368491C1E6A26F03F06314319626168DB
:100A9000914210D84900401EB0FBF1F2521CC2F343
:100AA0000B02042A01D2042022E0B0FBF1F0401C2A
:100AB000C0F30B001CE0A368F3B301EBC10202EB2F
:100AC0000116421EB2FBF6F2521C42F4804212059D
:100AD00049D093B301EBC10202EB0111401EB0FB00
:100AE000F1F0401CC0F30B0040F4804040F40040A3
:100AF0002168CA694CF6FF739A431043C861D4E970
:100B00000701084321680A6822F0C0021043086008
:100B1000D4E9030101432068826848F2FF339A4315
:100B200011438160D4E9050108432168CA6822F0B5
:100B3000FF021043C86001E00EE016E02068016883
:100B400041F0010101602564202084F83D00256307
:100B500084F83E50002070BD01EB4106421EB2FBFE
:100B6000F6F2521CB3E70120C2E701EB4101401E3F
:100B7000B0FBF1F0401CC0F30B00B7E7A08601000A
:100B800080841E0000093D0040420F002DE9FF4F08
:100B900083B09A46DDE9119793460446DDF840801C
:100BA000FFF734FF054694F83D0020287FD1192334
:100BB000012240492046009500F0F8FE002876D139
:100BC00094F83C00012872D0012084F83C00206891
:100BD0000168C90703D1016841F001010160206883
:100BE000016821F400610160212084F83D0040206B
:100BF00084F83E0000262664C4F82480A4F82A90D5
:100C0000608D20852C48E062CDE9007553465A4638
:100C10002046049900F05AFE70B930E02A46394661
:100C2000204600F042FF58B1206C042804D120680F
:100C3000016841F400710160012007B0BDE8F08F48
:100C4000606A216800780861606A401C6062218DDA
:100C5000491E89B22185628D521E628522685369C0
:100C6000DB435B070BD469B100781061606A401CFC
:100C70006062208D401E2085608D401E6085208D25
:100C80000028CBD12A463946204600F069FE0028CC
:100C9000CAD154F83D0B016841F400710160202075
:100CA00004F81E09E67766770020C6E7FFE7022012
:100CB000C3E70000020010000000FFFF10B586B07F
:100CC0000021009101910291039100680F4988422F
:100CD0001AD10F4CA06940F00800A061A0696946D4
:100CE00000F008000490C020009012200190032022
:100CF00003900848FFF790FDE06940F40010E061C0
:100D0000E06900F40010049006B010BD00540040EB
:100D100000100240000C0140024881680278114432
:100D20008160704740160020074810B5016841F007
:100D300010010160032000F075F8002000F006F8B3
:100D400000F024F8002010BD0020024070B50D4DC9
:100D500004464FF47A712878B1FBF0F00A4909682B
:100D6000B1FBF0F000F0ECFA48B9102C07D20022E9
:100D70002146501E00F036F800206C6070BD012046
:100D800070BD0000401600204C1600200C4808B52D
:100D9000816941F001018161816901F001010091E6
:100DA000C16941F08051C161C06900F0805000907C
:100DB0000448416821F0E06141F00071416008BDE4
:100DC0000010024000000140002809DB00F01F0273
:100DD000012191404009800000F1E020C0F800119D
:100DE00070470000F0B40E4B1B680C46C3F302239F
:100DF000C3F10705042D00D90425191D072901D2C7
:100E0000002300E0DB1E012606FA05F1491E214001
:100E100099409E40761E16403143F0BC01F0E0BA86
:100E20000CED00E0064900F0070208684FF6FF03EA
:100E3000184040EA0220034A10430860704700004F
:100E40000CED00E00000FA052DE9F0470F46050023
:100E500061D0434E306800F00700B84209D23068D4
:100E600020F0070038433060306800F00700B842D7
:100E700051D128683B4C810712D5400703D56068E3
:100E800040F4E06060602878000703D5606840F4B3
:100E9000605060606068A96820F0F00008436060FE
:100EA0002878C00728D06868012810D02168022857
:100EB00010D0890700292EDA616821F0030101436F
:100EC0006160FFF7A3FD804641F288390DE021689B
:100ED0008903EFE78901EDE7FFF798FDA0EB080133
:100EE000494502D90320BDE8F0876068696800F0D1
:100EF0000C00B0EB810FEFD1306800F00700B84272
:100F00000BD9306820F0070038433060306800F0BB
:100F10000700B84201D00120E5E72878400705D551
:100F20006068E96820F4E0600843606028780007A2
:100F300006D56068296920F4605040EAC10060600D
:100F400000F038F86168084AC1F30311515CC840E9
:100F50000649086006480068FFF7F8FE0020C2E76F
:100F60000020024000100240603F00084C160020A4
:100F7000441600200448054900684968044AC1F342
:100F80000221515CC84070474C16002000100240FE
:100F9000703F00080448054900684968044AC1F3E5
:100FA000C221515CC84070474C160020001002401E
:100FB000703F000812A185B00FC98DE80F0014A082
:100FC000144A006804905168134801F00C03042B84
:100FD00010D0082B0ED1C1F38343C9031DF80300C1
:100FE0000AD5516804AAC1F34041515C0A4A5043F2
:100FF000B0FBF1F005B0704708494843FAE700003C
:1010000002030405060708090A0B0C0D0E0F101049
:10101000010200000010024000127A0000093D00A9
:101020002DE9F84F040070D02078C04DC00749D09A
:101030006868C0F38100012807D06868C0F38100A8
:10104000022809D16868C00306D52868800339D50D
:1010500060680028E7D035E06068B0F5803F0BD0CD
:1010600010B1B0F5A02F11D0286820F4803028608E
:10107000286820F4802002E0286840F4803028604E
:10108000606890B1FFF7C2FC06460AE0286840F4A9
:1010900080202860F0E700BFFFF7B8FC801B6428C1
:1010A00073D828688003F7D50CE0FFF7AFFC06463D
:1010B00005E000BFFFF7AAFC801B6428F0D8286871
:1010C0008003F7D420789A4E80074FF001094FF043
:1010D000000839D5686810F00C0F07D06868C0F3B5
:1010E0008100022809D16868C00306D428688007F7
:1010F00014D52069012808D110E02069B0B1C6F8E4
:101100000090FFF783FC074605E00AE1FFF77EFC4D
:10111000C01B0228C4D828688007F7D528686169F1
:1011200020F0F80040EAC10028600DE0C6F8008019
:10113000FFF76CFC074604E0FFF768FCC01B0228C1
:1011400023D828688007F7D4207800072CD5794861
:10115000A169D9B1C0F80090FFF758FC074604E038
:10116000FFF754FCC01B02280FD8686A8007F7D528
:1011700071484FF4FA510068B0FBF1F0009000BFE5
:101180000098411E0091FAD20EE080E0C0F8008085
:10119000FFF73CFC074604E0FFF738FCC01B0228C1
:1011A00075D8686A8007F7D42078400760D5E86969
:1011B0000027C00008D4E86940F08050E861E86981
:1011C000012700F0805000905C480168C90513D4E5
:1011D0000168834641F480710160FFF717FC824685
:1011E00006E000BFFFF712FCA0EB0A0064284ED80F
:1011F000DBF80000C005F5D5E06801280AD008B189
:10120000052813D0286A20F001002862286A20F0FF
:10121000040002E0286A40F001002862E06841F220
:10122000883B98B1FFF7F2FB82460BE0286A40F05A
:1012300004002862EEE700BFFFF7E8FBA0EB0A011D
:1012400059455AD8286A8007F6D50CE0FFF7DEFB2F
:10125000824605E0FFF7DAFBA0EB0A0159454CD8BE
:10126000286A8007F6D41FB1E86920F08050E86151
:10127000E06988B36968C1F38101022944D002287A
:10128000C6F8608004D0FFF7C1FB044638E034E0C4
:10129000FFF7BCFB074604E0FFF7B8FBC01B0228C2
:1012A0002BD828688001F7D4206AB0F5803F05D19B
:1012B0006868A16820F4003008436860D4E9080138
:1012C0000843696821F4741108436860C6F86090A7
:1012D000FFF79CFB044606E025E000BFFFF796FB06
:1012E000001B022809D828688001F7D51BE000BF41
:1012F000FFF78CFB001B022802D90320BDE8F88F02
:1013000028688001F4D40EE00128F7D06868226ACA
:1013100000F48031914204D1616A00F47010884277
:1013200001D00120EAE70020E8E7000000100240B9
:1013300000004242800442424C16002000700040EF
:1013400010B5401EB0F1807F01D3012010BD4FF0D9
:10135000E02460610F21601701F042F80020A061D5
:1013600007202061002010BD7047704770B590F8CD
:101370003C20012A19D0012400F83C4F022242707F
:1013800050F83C3C5A689D6822F070060A6849682B
:10139000324325F0800529435A6050F83C2C916077
:1013A000447000210170084670BD022070BD10B568
:1013B000040003D094F83D0010B107E0012010BDF7
:1013C000002084F83C00204600F00CF8022084F84D
:1013D0003D00211D206800F015FF012084F83D002C
:1013E000002010BD08B5214A01682148914226D14C
:1013F000816941F4006181618069002200F400602C
:10140000009011461820FFF7EDFC1820FFF7DCFCD8
:10141000002211461920FFF7E5FC1920FFF7D4FC44
:10142000002211461A20FFF7DDFC1A20FFF7CCFC42
:10143000002211461B20FFF7D5FC1B2010E00D4AAF
:10144000914211D1C16941F00201C161C06900221C
:1014500000F00200009011461D20FFF7C3FC1D2084
:10146000BDE80840FFF7B0BC08BD0000002C0140FB
:1014700000100240000400400168CA6842F0010206
:10148000CA600068816801F00701062903D001687D
:1014900041F001010160002070470168CA6822F034
:1014A0000102CA600068016A41F21112114207D1BB
:1014B000016A9210114203D1016821F0010101601B
:1014C0000020704770B5044690F83C00012817D002
:1014D000012584F83C50022084F83D002068826891
:1014E00022F0770222F47F4282600868502830D0D0
:1014F0000DDC20284DD005DC98B310283BD148E006
:10150000022070BD302844D0402834D139E0602812
:1015100028D0702806D0B0F5805F2CD0B0F5005FE1
:1015200029D10AE0CB68D1E90121206800F0A0FEB2
:101530002068816841F0770109E0CB68D1E9012199
:10154000206800F095FE2068816841F48041816048
:1015500011E0CA684968206800F09CFE50212068AC
:1015600007E016E0CA684968206800F0A4FE602120
:10157000206800F087FE84F83D50002084F83C008D
:1015800070BDCA684968206800F084FE4021206868
:10159000EFE7226801461046EBE7704770B5044656
:1015A000006801694FF00005C943890715D4C16877
:1015B000C943890711D4E91E016101202077206801
:1015C00080698007204602D0FFF7E7FF04E000F0C3
:1015D00098F8204600F096F8257720680169C943FD
:1015E000490717D4C168C943490713D46FF00401F0
:1015F0000161022020772068806910F4407F204636
:1016000002D0FFF7CAFF04E000F07BF8204600F0AC
:1016100079F8257720680169C943090716D4C1689C
:10162000C943090712D46FF0080101610420207733
:101630002068C0698007204602D0FFF7AEFF04E0B3
:1016400000F05FF8204600F05DF82577206801691A
:10165000C943C90617D4C168C943C90613D46FF07A
:1016600010010161082020772068C06910F4407FD4
:10167000204602D0FFF791FF04E000F042F8204638
:1016800000F040F8257720680169C943C90708D1EF
:10169000C168C943C90704D1891E0161204600F011
:1016A00033F820680169C943090609D4C168C943F0
:1016B000090605D46FF0800101612046FFF754FE52
:1016C00020680169C943490609D4C168C94349066C
:1016D00005D46FF040010161204600F059F8206800
:1016E0000169C94389060BD4C168C943890607D477
:1016F0006FF0200101612046BDE87040FFF735BE64
:1017000070BD70477047000070B51C490068002527
:1017100009681B4C884210D1E268616819489142FF
:1017200003D101210A46A16001E00022A560022147
:10173000FFF767F9E068606070BD13490968884287
:10174000FAD1E068616900EB800001EB4000FEF730
:10175000D2FDA169FEF75AFDFEF7DFFD6061FEF7DD
:10176000CFFD0022094BFEF757FDFEF7EAFDA06111
:10177000FEF7D3FD2061E56070BD0000A4160020D7
:101780000000002000080140E41600200000144082
:10179000704770B5040004D094F83900002510B1EA
:1017A00006E0012070BD84F83850204600F022F891
:1017B000242084F839002068C16821F40051C160F8
:1017C000204600F08BFD2068016921F49041016101
:1017D0002068416921F02A0141612068C16841F413
:1017E0000051C160E563202084F8390084F83A0094
:1017F000002070BD30B585B000240094019402949F
:101800000394224D0368224902222248AB4220D190
:101810008B6943F480438B618B6903F480430493A9
:101820008B6943F004038B618969054601F004016B
:1018300004914115CDE90012032103916946FEF799
:10184000EBFF4FF48060CDE900046946284602941E
:1018500017E0114CA34216D1CB6943F40033CB619E
:10186000CB6903F4003304938B6943F004038B6169
:101870008969039201F0040104910C21CDE9001261
:101880006946FEF7C9FF05B030BD000000380140D1
:10189000001002400008014000440040FEE70168DB
:1018A0004A69D24352050FD46FF480624A61002125
:1018B00040F8301F202242738173026942F0040213
:1018C0000261017301207047002070472DE9F84341
:1018D000044600680D46DDE90897016898461646FB
:1018E00041F4807101604B4600224FF00111204607
:1018F000009700F05BF8E0B9216805F0FE00086190
:101900003B464A461549204600F084F888B92068CD
:101910004169806900903A464946204600F0C5F882
:1019200050B1206C042804D12068016841F4007192
:1019300001600120BDE8F883F5B2B8F1010F09D0CC
:101940002168300A08613A464946204600F0ADF861
:101950000028E6D1206805610020EBE702000100C5
:1019600070B516460D4604460DE02046FFF797FF7A
:1019700008B1012070BD681C05D0FFF747F8801B37
:10198000A84207D835B120684069C0434007ECD46D
:10199000002070BD002044F8300F20216173A07337
:1019A000216941F0200121612073E2E72DE9F04730
:1019B0001E4690460D460446C1F30747DDF82090C9
:1019C00008E0701C06D0FFF721F8A0EB0900B04238
:1019D0000FD876B12068012F18D0806925EA000061
:1019E0000004000C14D000214145EAD00020BDE8DD
:1019F000F087002044F8300F20216173A073216923
:101A000041F02001216120730120F0E74069E5E702
:101A10000121E9E72DE9F0479A4691460E46044632
:101A200000254FF02008C1F3074725E020684069F2
:101A3000C043400514D42068016841F4007101607E
:101A400021686FF480604861256384F83D8084F8E4
:101A50003E50206C40F00400206484F83C501FE0AD
:101A6000B9F1FF3F08D0FEF7D1FFA0EB0A014945CD
:101A70000CD8B9F1000F09D02068012F13D080696C
:101A800026EA00000004000C0BD0CFE744F8305FDA
:101A900084F80D80A573206940F020002061257333
:101AA0000120BDE8F0874069EAE770B516460D46AB
:101AB00004460DE02046FFF7F2FE08B1012070BD9C
:101AC000681C05D0FEF7A2FF801BA84207D835B1DD
:101AD00020684069C0430006ECD4002070BD00209F
:101AE00044F8300F20216173A073216941F0200177
:101AF00021612073E2E700002DE9F04186B0002665
:101B000038480096019602960396816941F01001CB
:101B10008161816901F010010491816941F0200126
:101B20008161816901F020010491816941F0040122
:101B30008161816901F004010491816941F008012A
:101B400081618069DFF8A08000F008000490002225
:101B50001E214046FEF755FF244F00222221384621
:101B6000FEF74FFF7814CDE900060125694602957E
:101B70004046FEF751FE1E20CDE900050224CDE9C6
:101B8000025469464046FEF747FECDE900450294FF
:101B9000694638460394FEF73FFE202003948DE803
:101BA000610069463846FEF737FE4FF4F070CDE924
:101BB0000006694602944046FEF72EFE042000907F
:101BC0000B48CDE9010469460A48FEF725FE0022CC
:101BD00011460820FFF706F90820FFF7F5F806B0D0
:101BE000BDE8F081001002400010014000080140F3
:101BF00000001110000C01400D4810B50B490160A8
:101C00000C49416000214FF480428160C0E9031219
:101C100041618161C1610162FEF7FEFE002803D0CF
:101C2000BDE81040FEF793BC10BD0000005400401A
:101C300050160020A086010010B586B00024174879
:101C40000094019402940394049413490594016050
:101C50004721C0E901144FF47A71C0E903144461CB
:101C60008461FFF7A4FB08B1FEF771FC4FF48050CC
:101C7000009069460948FFF725FC08B1FEF767FCAC
:101C8000049404A905480594FFF770FB002801D0CF
:101C9000FEF75DFC06B010BD002C0140A41600202C
:101CA00010B586B000241748009401940294039460
:101CB00004941349059401604721C0E9011442F2DC
:101CC0001071C0E903148461FFF771FB08B1FEF7DE
:101CD0003EFC4FF48050009069460A48FFF7F2FB43
:101CE00008B1FEF734FC049404A906480594FFF7F4
:101CF0003DFB002801D0FEF72AFC06B010BD000015
:101D000000040040E41600200C4810B50A490160A8
:101D10004FF4E1314160002181600C22C160C0E9D3
:101D200004128161C161FFF734FD002803D0BDE8D2
:101D30001040FEF70CBC10BD0038014024170020F5
:101D40000C4810B50A4901604FF4E13141600021AF
:101D500081600C22C160C0E904128161C161FFF79A
:101D600018FD002803D0BDE81040FEF7F0BB10BD01
:101D70000044004064170020FEE77047002000F098
:101D800001B8000070B506465FF0000404F1B00031
:101D9000C0B200F001FB002000F0FEFA102000F0BD
:101DA000FBFA0025304600F009FB6D1CEDB2802DDA
:101DB000F8D3641CE4B2082CE8D370BD10B56420DD
:101DC000FEF750FCAE2000F0E7FA202000F0E4FA25
:101DD000102000F0E1FAB02000F0DEFAC82000F098
:101DE000DBFA002000F0D8FA102000F0D5FA4020ED
:101DF00000F0D2FA812000F0CFFAFF2000F0CCFAF8
:101E0000A12000F0C9FAA62000F0C6FAA82000F030
:101E1000C3FA3F2000F0C0FAA42000F0BDFAD3209E
:101E200000F0BAFA002000F0B7FAD52000F0B4FABA
:101E3000F02000F0B1FAD92000F0AEFA222000F034
:101E4000ABFADA2000F0A8FA122000F0A5FADB20A5
:101E500000F0A2FA202000F09FFA8D2000F09CFAFA
:101E6000142000F099FABDE81040AF2000F094BAB9
:101E700010B50446B031C8B200F08EFA102040EA26
:101E8000141000F089FA04F00F00BDE8104040F093
:101E9000010000F081BA00002DE9F0410E468046B5
:101EA0000027D401FFF7E4FF1A4D285D00F086FA01
:101EB0007F1CFFB2641C202FF7D3701CC1B24046B8
:101EC000FFF7D6FF0027285D00F078FA7F1CFFB2ED
:101ED000641C202FF7D3B01CC1B24046FFF7C8FFE7
:101EE0000027285D00F06AFA7F1CFFB2641C202FD7
:101EF000F7D3F61CF1B24046FFF7BAFF0026285D83
:101F000000F05CFA761CF6B2641C202EF7D3BDE814
:101F1000F08100001C0000202DE9F0410E468046B3
:101F200000271402FFF7A4FF364D285D00F046FAA3
:101F30007F1CFFB2641C202FF7D3701CC1B2404637
:101F4000FFF796FF0027285D00F038FA7F1CFFB2EC
:101F5000641C202FF7D3B01CC1B24046FFF788FFA6
:101F60000027285D00F02AFA7F1CFFB2641C202F96
:101F7000F7D3F01CC1B24046FFF77AFF0027285D77
:101F800000F01CFA7F1CFFB2641C202FF7D3301D19
:101F9000C1B24046FFF76CFF0027285D00F00EFA43
:101FA0007F1CFFB2641C202FF7D3701DC1B24046C6
:101FB000FFF75EFF0027285D00F000FA7F1CFFB2EC
:101FC000641C202FF7D3B01DC1B24046FFF750FF6D
:101FD0000027285D00F0F2F97F1CFFB2641C202F5F
:101FE000F7D3F61DF1B24046FFF742FF0026285D09
:101FF00000F0E4F9761CF6B2641C202EF7D3BDE89D
:10200000F08100001C0700202DE9F0410F468046BA
:1020100000255401FFF72CFF0C4E305D00F0CEF987
:102020006D1CEDB2641C102DF7D37F1CF9B2404635
:10203000FFF71EFF0025305D00F0C0F96D1CEDB20A
:10204000641C102DF7D3BDE8F08100001C110020A6
:102050002DE9F047002591468A460446012B22D0FF
:10206000DFF8BC80022B24D155E02038C7B27E2C8B
:1020700004D90AF10100002400F0FF0A514620466D
:10208000FFF7F6FE07EB4700002608EB4007B85DB8
:1020900000F094F9761CF6B2062EF8D3A41D6D1C40
:1020A000E4B2EDB201E0DFF87C8019F80500002809
:1020B000DBD1BDE8F0872038C7B2782C04D90AF10B
:1020C0000100002400F0FF0A51462046FFF7D0FE31
:1020D0005FF0000606EB071118F8010000F06EF93A
:1020E000761CF6B2082EF5D30AF10100C1B22046E3
:1020F000FFF7BEFE5FF0000606EB071101EB0800DC
:10210000007A00F05BF9761CF6B2082EF4D308349E
:102110006D1CE4B2EDB219F805000028CBD1C8E778
:10212000703900084837000870477047FEF7F4BD63
:1021300030B58FB028216846FEF70BF814210AA8A5
:10214000FEF707F801210804CDE9001000240294ED
:1021500002250491CDE907504FF4E010099068463C
:10216000FEF75EFF0F20CDE90A056802CDE90C40BD
:1021700002210AA80E94FEF767FE0FB030BD0000E2
:102180000D48016841F00101016041680B4A1140AE
:10219000416001680A4A11400160016821F4802110
:1021A0000160416821F4FE0141604FF41F0181602C
:1021B0000449C00308607047001002400000FFF8A7
:1021C000FFFFF6FE08ED00E00148FFF7E7B9000069
:1021D000A41600200148FFF7E1B90000A416002072
:1021E0000148FFF7DBB90000A41600200148FFF703
:1021F000D5B90000A41600200148FFF7CFB90000B0
:10220000E4160020F0B50268164B174C174D4FF03E
:102210008047984205D0B84203D0A04201D0A842DE
:1022200003D122F070064A683243984205D0B84282
:1022300003D0A04201D0A84203D122F44074CA685E
:1022400022434C6922F08002224302608A68C26203
:102250000A688262984201D10969016301214161E2
:10226000F0BD0000002C01400004004000080040C8
:1022700010B5846842EA032224F47F440A432243CF
:10228000826010BD826822F070020A4342F00701AA
:102290008160704710B5036A046A24F00104046287
:1022A000846924F0F00444EA021423F00A020A4389
:1022B0008461026210BD10B5036A23F0100303624B
:1022C0008369046A23F4704343EA023224F0A003D2
:1022D00043EA01118261016210BD00002DE9F04165
:1022E000044600680169E26821F44051114301612C
:1022F0002169A0680843616908432168CA6841F2FE
:102300000C639A430243CA6020684169A26921F4C0
:102310004071114341611E4920686425322688427C
:1023200002D1FEF737FE01E0FEF724FE00EBC0010C
:1023300001EB001160686FF018078000B1FBF0F24C
:10234000B2FBF5F2B1FBF0F37A4303EB8202B1FB8F
:10235000F0F306EB0212B2FBF5F2B3FBF5F302F079
:10236000F00202EB0312B1FBF0F3B1FBF0F0B0FBB3
:10237000F5F0784303EB800006EB0010B0FBF5F0BE
:10238000216800F00F0010448860BDE8F081000073
:1023900000380140FEE7000001B584B0012164224D
:1023A00004A88DE807000B46002278210248FEF7BA
:1023B000EDFB05B000BD00005016002001B584B053
:1023C0000121642204A88DE807000B4640227821F1
:1023D0000248FEF7DBFB05B000BD000050160020F0
:1023E0000907090E002804DB00F1E02080F8001442
:1023F000704700F00F0000F1E02080F8141D7047D6
:1024000002E008C8121F08C1002AFAD170477047BD
:10241000002001E001C1121F002AFBD1704700001B
:102420000A4B10B41A68A2F58074F33C0BD0084C28
:1024300044F8220004F5C87040F82210521C1A60BB
:1024400010BC00F067BD10BC704700003C160020B7
:10245000A41700202DE9FF5F00252F468DF80050BE
:102460000C2229462846FFF7CFFD0D22002110201F
:10247000FFF7CAFD0E2200212020FFF7C5FD0F2225
:1024800000213020FFF7C0FD102200214020FFF77F
:10249000BBFD112200215020FFF7B6FD12220421BE
:1024A0000020FFF7B1FD132204211020FFF7ACFD3F
:1024B000142204212020FFF7A7FD1522042130203B
:1024C000FFF7A2FD162204214020FFF79DFD1122F7
:1024D00004215020FFF798FD48208DF80A007A204B
:1024E000DFF86CB29B4EDFF870828DF80B008DF830
:1024F0000C704FF4005AE94651465846FEF77CFAF4
:10250000F0B331689548B1FBF0F130318DF804102B
:102510003268B2FBF0F100FB112042F21071B0FB07
:10252000F1F030308DF805003068B0FBF1F201FBBE
:1025300012014FF47A70B1FBF0F130318DF80610D2
:102540003268B2FBF0F100FB11206421B0FBF1F026
:1025500030308DF807003268B2FBF1F001FB10213A
:102560000A20B1FBF0F130318DF808103168444693
:10257000B1FBF0F200FB121030308DF8090000E0E2
:1025800019E0D8F8000018B3FFF7F8FB0822022181
:102590000020FFF781FC092202212020FFF77CFCAC
:1025A0000A2202214020FFF777FC0B220221602043
:1025B000FFF772FC06E0042004B0BDE8F09F642041
:1025C000FEF750F820680128F9D0FFF7D7FBAEE0FE
:1025D00000F0DCFC0446022D44D0012C11D0022C6A
:1025E0000FD0032C0DD0052C0BD0062C09D0072CB6
:1025F00007D0092C05D00A2C03D00B2C01D00E2CAF
:1026000030D1E01704EB9070811020F0030001EB53
:102610004101201A08440B2190FBF1F201FB12004A
:10262000303009F805001722062100206D1CFFF745
:10263000EBFC172206211020FFF7E6FC17220621EB
:102640002020FFF7E1FC172206213020FFF7DCFCF9
:10265000172206214020FFF7D7FC17220621502021
:10266000FFF7D2FC0F2C11D00D2C33D00CB1A007EA
:1026700067D0022301AA19460020FFF7E9FC0223D4
:102680006A4606210020FFF7E3FC35E7002DEED077
:102690006D1E172209F8057006210020FFF7B4FC13
:1026A000172206211020FFF7AFFC17220621202059
:1026B000FFF7AAFC172206213020FFF7A5FC1722FE
:1026C00006214020FFF7A0FC172206215020FFF72B
:1026D0009BFCCCE7002DCAD0012D2AD09DF800101C
:1026E0006420303941439DF8010000EB800001EB8C
:1026F00040003168A0F5F070FFF792FEFFF73EFB57
:10270000002202211046FFF7C7FB012202212020F0
:10271000FFF7C2FB022211464020FFF7BDFB032258
:1027200002216020FFF7B8FB6420FDF79BFF01202A
:1027300042E79DF800003168303800EB800040002F
:10274000DAE7E01704EB90708010401E34E70000D9
:10275000001001401000002008000020A0860100A9
:102760002DE9F04F002591B02C4629462B464FF01D
:102770002E092D274FF03E0C4FF0480A4FF07A0BF0
:102780006E4601EB011020223044491C427080F853
:102790000490877180F807C080F80EA080F80FB011
:1027A00003740429EDDB0020DFF8FC9342F2107B78
:1027B0004FF47A7A01E0A04201D12A2100E02021E1
:1027C00000EB001200EB850CB154F849642351F87A
:1027D0002C2000EB0011B2FBF3F7314430378F703F
:1027E000B2FBF3F703FB17280A27B8FBF7F808F149
:1027F000300881F80380B2FBF7F807FB182230326B
:102800004A7159F82C20DFF8A8C3401CB2FBFCF831
:1028100008F1300881F80880B2FBFCF80CFB18289E
:10282000DC46B8FBFCF808F1300881F80980B2FBFF
:10283000FBF80BFB1828D446B8FBFCF808F130086D
:1028400081F80A80B2FBFAF80AFB182CBCFBF3FCF7
:102850000CF1300C81F80BC0B2FBF3FC03FB1C2322
:10286000B3FBF7F330330B73B2FBF7F307FB132221
:1028700030324A7304289EDB4FF40051CD48FEF7F6
:10288000BBF8C8B1CC4F386808B3FFF777FA082215
:1028900002210020FFF700FB092202212020FFF780
:1028A000FBFA0A2202214020FFF7F6FA0B2202214E
:1028B0006020FFF7F1FA06E0042011B0BDE8F08FC8
:1028C0006420FDF7CFFE38680128F9D062E100F0FE
:1028D0005DFB012803D0022801D0032800D1441E4B
:1028E000052804D00021A14203D12A2202E00324BA
:1028F0000021202201EB0117491CF2550429F2DBCB
:102900000A280ED00E2875D00D286FD010286ED052
:102910000F286DD004286CD00828FCD00C28FAD0E1
:10292000C9E0A6480068B5EB900F5DD20022642391
:102930000A27DFF87CE26D1C9C4802EB850C50F8FE
:102940002C1002EB0210B1FBF3F8304408F1300810
:1029500080F80280B1FBF3F803FB1818B8FBF7F816
:1029600008F1300880F80380B1FBF7F807FB181175
:102970003031417159F82C10F446B1FBFCF808F1E4
:10298000300880F80880B1FBFEF80EFB1818B8FB81
:10299000FBFCB1FBFBF80CF1300C0BFB181880F8BA
:1029A00009C0B8FBFAFCB1FBFAF80CF1300C80F866
:1029B0000AC00AFB181CBCFBF3FC0CF1300C80F8BD
:1029C0000BC0B1FBF3FC03FB1C1CBCFBF7FC0CF1C4
:1029D000300C80F80CC0B1FBF7FC07FB1C11303148
:1029E000521C4173042AA7DB65E003E07FE097E017
:1029F000B3E0D3E0002D5EDD0022DFF8B0E1642318
:102A00000A276D1E02EB850C02EB02105EF82C10FB
:102A10003044B1FBF3F808F1300880F80280B1FBD4
:102A2000F3F803FB1818B8FBF7F808F1300880F842
:102A30000380B1FBF7F807FB18113031417159F8E9
:102A40002C10DFF86CC1521CB1FBFCF808F1300807
:102A500080F80880B1FBFCF80CFB1818DC46B8FBCA
:102A6000FCF808F1300880F80980B1FBFBF80BFB9B
:102A70001818B8FBFAFCB1FBFAF80CF1300C80F82E
:102A80000AC00AFB181CBCFBF3FC0CF1300C80F8EC
:102A90000BC0B1FBF3FC03FB1C1CBCFBF7FC0CF1F3
:102AA000300C80F80CC0B1FBF7FC07FB1C11303177
:102AB0004173042AA6DB002102236A460846FFF779
:102AC000C7FA0223194600200DF11102FFF7C0FAE0
:102AD0000223042100200DF12202FFF7B9FA02239C
:102AE000062100200DF13302FFF7B2FAC4E6FFF72A
:102AF00045F9062202210020FFF7CEF90722022124
:102B00002020FFF7C9F9022211464020FFF7C4F93F
:102B1000032202216020FFF7BFF900F093F839E0AB
:102B2000FFF72CF90C2202210020FFF7B5F90D2246
:102B300002212020FFF7B0F9022211464020FFF7C2
:102B4000ABF9032202216020FFF7A6F94FF4FA70D7
:102B5000FDF788FD00F034F81CE0FFF70FF90422C0
:102B600002210020FFF798F9052202212020FFF71B
:102B700093F9022211464020FFF78EF90322022129
:102B80006020FFF789F96420FDF76CFD04EB8500F8
:102B900000F08EF8FFF7F2F803208EE6C11700EB85
:102BA00091708010401E88E634190020A417002080
:102BB000A086010000100140080000203C16002003
:102BC0000020094A4FEA000142F82010401C642806
:102BD000FADB064A002000BF42F82010401C64289F
:102BE000FADB034801607047A41700203419002065
:102BF0003C16002010490020820002F10062126899
:102C000041F82020401C6428F6DB0C4A0020830099
:102C100003F10063D3F8903142F82030401C64285F
:102C2000F5DB074A106800E0401C51F82030002B0B
:102C3000FAD1106070470000A4170020341900205A
:102C40003C16002070B586B0FDF7BCFD00204FF0AB
:102C50000065012102950090CDE9031004A96846A2
:102C6000FDF712FD0F4E002405EB840156F82420D9
:102C700000230220FDF766FD641C642CF4DB0A4D82
:102C80000A4E002406EB840155F82420002302207C
:102C9000FDF758FD641C642CF4DBFDF749FD06B01C
:102CA00070BD0000A4170020341900209001000816
:102CB000F0B41A4D184900242B6801F5C87208B900
:102CC000012B24D041F8204001EB830642F820403C
:102CD00056F8044D41F8204037687C40346051F884
:102CE0002060664002EB830441F8206054F8046DD4
:102CF00042F8206021687140216052F82040614014
:102D000042F820105B1E2B60F0BC00F003B90C6091
:102D100014602C60F0BC7047A41700203C16002003
:102D2000FFF72CF840F6C410FDF79CFCDFF83C815F
:102D3000D8F8000000F0A4F840F2F31B4FF4FA7545
:102D40000A2801DA0A2002E0A84200DB58460446BD
:102D50004748FEF7A2FB474F012202213846FDF704
:102D600050FE4FF4FA70FDF77DFC00220221384638
:102D7000FDF747FE3E48FEF77FFB3F4D0A264FF02A
:102D800064092868F0B1FEF7F9FF0822022100204B
:102D9000FFF782F8092202212020FFF77DF80A229E
:102DA00002214020FFF778F80B2202216020FFF774
:102DB00073F802E06420FDF755FC28680128F9D07B
:102DC000FEF7DCFF4FF400512C48FDF715FE30BB39
:102DD000FEF7D4FF40F6C410FDF744FCD8F800001D
:102DE00000F04EF80A2801DA0A2003E0B0F5FA7F75
:102DF00000DB584604461E48FEF74FFB0122022125
:102E00003846FDF7FEFD4FF4FA70FDF72BFC00226B
:102E100002213846FDF7F5FD1548FEF72DFB94FB22
:102E2000F6F006FB104005280DDB04F10A0A9AFBB8
:102E3000F9F0C2B200212020FFF76EF89AFBF9F2F8
:102E400009FB12A00AE094FBF9F0C2B20021202095
:102E5000FFF762F894FBF9F109FB114090FBF6F0E3
:102E6000C2B200214020FFF757F88AE71000002087
:102E7000A4160020000801400800002000100140B6
:102E800070B522490B68022B01D2002070BD204A88
:102E9000002102F5C8745D1E17E000BF04EB810637
:102EA0007668864210D354F8216086420CD202EB39
:102EB000810352F821205B68801B9D1A454304EB77
:102EC00081004068801B1DE0491CA942E6D32168AF
:102ED000814209D90CCA081A9B1A43436068401AF8
:102EE000B3FBF0F0101A70BD02EB8301083906C97C
:102EF000551A04EB830151F8043CC01A454351F8BC
:102F0000080C181AB5FBF0F0104470BD3C160020F8
:102F1000A4170020F0B51A4800211A4A03685E1E63
:102F20002BE0581E26E000BF52F8214052F82050F6
:102F3000AC421ED96C4042F8214052F820506C40FF
:102F400042F8204052F8215065400F4C42F8215081
:102F500054F8207054F821506F4044F8217054F810
:102F600020507D4044F8205054F821707D4044F8B2
:102F70002150401E8842D7DC491CB142D1D3F0BD5C
:102F80003C160020A41700203419002070B5F54C21
:102F900000252A4610212046FDF733FD0022082196
:102FA0002046FDF72EFD002204212046FDF729FDD5
:102FB000002202212046FDF724FD00222021204688
:102FC000FDF71FFD002240212046FDF71AFD0022DB
:102FD00080212046FDF715FDA6150022314620462A
:102FE000FDF70FFD012210212046FDF70AFD2021EB
:102FF0002046FDF701FD012808D10520FDF732FB31
:1030000020212046FDF7F8FC012806D0402120466B
:10301000FDF7F2FC012808D010E020212046FDF742
:10302000EBFC0128F9D0012070BD0520FDF71AFB4B
:1030300040212046FDF7E0FC012806D080212046F3
:10304000FDF7DAFC012808D010E040212046FDF70A
:10305000D3FC0128F9D0022070BD0520FDF702FB4A
:1030600080212046FDF7C8FC012806D031462046C5
:10307000FDF7C2FC012808D010E080212046FDF7B2
:10308000BBFC0128F9D0032070BD0520FDF7EAFA4A
:1030900031462046FDF7B0FC012833D00022102134
:1030A0002046FDF7AEFC002208212046FDF7A9FCD2
:1030B000002204212046FDF7A4FC00220221204624
:1030C000FDF79FFC002220212046FDF79AFC0022FC
:1030D00040212046FDF795FC002280212046FDF787
:1030E00090FC002231462046FDF78BFC012208218E
:1030F0002046FDF786FC20212046FDF77DFC0128B7
:1031000008D010E031462046FDF776FC0128F9D0C2
:10311000042070BD0520FDF7A5FA20212046FDF70B
:103120006BFC012806D040212046FDF765FC0128F4
:1031300008D010E020212046FDF75EFC0128F9D0E0
:10314000052070BD0520FDF78DFA40212046FDF7D2
:1031500053FC012806D080212046FDF74DFC0128B4
:1031600008D010E040212046FDF746FC0128F9D0A8
:10317000062070BD0520FDF775FA80212046FDF779
:103180003BFC012806D031462046FDF735FC0128DE
:1031900008D010E080212046FDF72EFC0128F9D050
:1031A000072070BD0520FDF75DFA31462046FDF78A
:1031B00023FC01287ED0002210212046FDF721FCAF
:1031C000002208212046FDF71CFC00220421204695
:1031D000FDF717FC002202212046FDF712FC002219
:1031E00020212046FDF70DFC002240212046FDF75E
:1031F00008FC002280212046FDF703FC0022314616
:103200002046FDF7FEFB012204212046FDF7F9FBD5
:1032100020212046FDF7F0FB012862D04021204606
:10322000FDF7EAFB012864D080212046FDF7E4FB8E
:10323000012866D031462046FDF7DEFB012868D024
:10324000002210212046FDF7DCFB00220821204649
:10325000FDF7D7FB002204212046FDF7D2FB002218
:1032600002212046FDF7CDFB002220212046FDF75C
:10327000C8FB002240212046FDF7C3FB002280212D
:103280002046FDF7BEFB002231462046FDF7B9FB84
:10329000012202212046FDF7B4FB20212046FDF744
:1032A000ABFB01283DD040212046FDF7A5FB0128BE
:1032B0003FD000E00DE080212046FDF79DFB012876
:1032C0003FD031462046FDF797FB012841D02846E4
:1032D00070BD31462046FDF78FFB0128F9D008204C
:1032E00070BD20212046FDF787FB0128F9D0092079
:1032F00070BD40212046FDF77FFB0128F9D00A2050
:1033000070BD80212046FDF777FB0128F9D00B2006
:1033100070BD31462046FDF76FFB0128F9D00C2027
:1033200070BD20212046FDF767FB0128F9D00D2054
:1033300070BD40212046FDF75FFB0128F9D00E202B
:1033400070BD80212046FDF757FB0128F9D00F20E2
:1033500070BD31462046FDF74FFB0128F9D0102003
:1033600070BD000000100140FDF7DEFCFEF7E0FE3E
:10337000FEF7C2FBFEF7E4FCFEF73EFC1B48FDF740
:103380009DFCFEF759FCFEF78BFCFEF7BDFC00220E
:1033900011460820FDF726FD0820FDF715FDFEF774
:1033A0000DFDFEF7EBFCFFF725FC1148FEF764F876
:1033B0001048FEF761F8104CFEF7E0FC2068052885
:1033C000FAD2DFE800F00306090C0F0000F03EF926
:1033D0000AE0FFF73FF807E000F010F804E0FFF71D
:1033E000BFF901E0FFF79CFC2060E5E750160020E4
:1033F000A4160020E4160020000000202DE9F04F64
:10340000002485B0252204212046FEF7FDFD26225A
:1034100004211020FEF7F8FD272204212020FEF7CA
:10342000F3FD282204213020FEF7EEFD24220421A2
:103430004020FEF7E9FD112204215020FEF7E4FDB3
:1034400048208DF80E007A200027DFF8E8B17A4E88
:10345000DFF8E8918DF80F008DF810704FF4005AE6
:1034600064254FF00A0851465846FDF7C5FAE8B3FF
:10347000D9F800104846724AB1FBF2F130318DF8AC
:103480000810D9F80010B1FBF2F302FB131142F25D
:103490001072B1FBF2F130318DF80910D9F800103B
:1034A000B1FBF2F302FB13114FF47A72B1FBF2F1AC
:1034B00030318DF80A100168B1FBF2F302FB1311F1
:1034C000B1FBF5F130318DF80B100168B1FBF5F26D
:1034D00005FB12124146B2FBF1F230328DF80C209E
:1034E0000068B0FBF8F208FB120000E01BE030308F
:1034F0008DF80D00306820B3FEF740FC0822022151
:103500000020FEF7C9FC092202212020FEF7C4FC9E
:103510000A2202214020FEF7BFFC0B22022160207C
:10352000FEF7BAFC06E0042005B0BDE8F08F642089
:10353000FDF798F830680128F9D0FEF71FFC02204B
:10354000F2E7FFF723FD78B3102807D081072BD1CE
:10355000C11700EB91708010401EE5E740F6C410E3
:10356000FDF780F8D9F80000FFF78AFC0A2801DA95
:103570000A2004E0B0F5FA7F01DB40F2F3100446C4
:103580003048FDF78AFF012202212F48FDF739FA62
:103590004FF4FA70FDF766F8002202212A48FDF781
:1035A00030FA2848FDF768FF94FBF5F030308DF8CD
:1035B000000094FBF5F005FB104191FBF8F094FB43
:1035C000F8F130308DF801002E208DF8020008FB54
:1035D000114030308DF8030002238DF804706A46E4
:1035E00019460020FEF734FD0021022302AA0846F6
:1035F000FEF72EFD94FBF8F108FB114005280FDBC8
:1036000004F10A0090FBF5F130318DF8001090FBC9
:10361000F5F105FB110191FBF8F030308DF8010058
:103620008DF8027002236A4606210020FEF710FD85
:1036300019E70000001001400800002010000020E1
:10364000A0860100A41600200008014070B50022E9
:1036500011461046FEF7D8FC012200211020FEF78B
:10366000D3FC022200212020FEF7CEFC0322002101
:103670003020FEF7C9FC042200214020FEF7C4FCE4
:10368000052200215020FEF7BFFC06220021602009
:10369000FEF7BAFC072200217020FEF7B5FC0822D5
:1036A00006212020FEF7B0FC092206213020FEF77B
:1036B000ABFC0A2206214020FEF7A6FC0B220621C5
:1036C0005020FEF7A1FC1E4E1E4C4FF4005529461B
:1036D0003046FDF791F9D8B16420FCF7C3FF2068AC
:1036E00010B3FEF74BFB082202210020FEF7D4FBAB
:1036F000092202212020FEF7CFFB0A2202214020CE
:10370000FEF7CAFB0B2202216020FEF7C5FB04E096
:10371000042070BD6420FCF7A5FF20680128F9D0C3
:10372000FEF72CFB002070BDFFF730FC0028CED048
:103730008107CCD1C11700EB91708010401E70BD85
:103740000010014008000020000000000000000000
:10375000002F000000000700070000147F147F14F2
:1037600000242A7F2A120062640813230036495578
:10377000225000000503000000001C224100000050
:1037800041221C000014083E08140008083E0808E6
:10379000000000A060000008080808080000606041
:1037A0000000002010080402003E5149453E000080
:1037B000427F4000004261514946002141454B3162
:1037C000001814127F10002745454539003C4A492E
:1037D00049300001710905030036494949360006A0
:1037E0004949291E00003636000000005636000008
:1037F0000008142241000014141414140000412283
:10380000140800020151090600324959513E007C5A
:103810001211127C007F49494936003E4141412244
:10382000007F4141221C007F49494941007F09092D
:103830000901003E4149497A007F0808087F0000DD
:10384000417F4100002040413F01007F0814224198
:10385000007F40404040007F020C027F007F040850
:10386000107F003E4141413E007F09090906003EAC
:103870004151215E007F09192946004649494931D5
:103880000001017F0101003F4040403F001F2040F8
:10389000201F003F4038403F0063140814630007B6
:1038A0000870080700615149454300007F4141000D
:1038B00000552A552A55000041417F0000040201AD
:1038C000020400404040404000000102040000208B
:1038D00054545478007F48444438003844444420C9
:1038E00000384444487F00385454541800087E0976
:1038F00001020018A4A4A47C007F0804047800003E
:10390000447D4000004080847D00007F10284400FA
:103910000000417F4000007C04180478007C08040B
:10392000047800384444443800FC24242418001847
:10393000242418FC007C0804040800485454542033
:1039400000043F444020003C4040207C001C2040BC
:10395000201C003C4030403C004428102844001CFF
:10396000A0A0A07C004464544C44141414141414F7
:103970000000000000000000000000000000000047
:10398000000000F8000000000000003330000000DC
:1039900000100C06100C06000000000000000000E3
:1039A00040C07840C0784000043F04043F04040055
:1039B000007088FC08300000001820FF211E000065
:1039C000F008F000E018000000211C031E211E007A
:1039D00000F00888700000001E2123241927211000
:1039E00010160E00000000000000000000000000A3
:1039F000000000E01804020000000007182040004A
:103A000000020418E0000000004020180700000039
:103A1000404080F0804040000202010F010202009D
:103A2000000000F0000000000101011F0101010081
:103A3000000000000000000080B0700000000000E6
:103A4000000000000000000000010101010101016F
:103A50000000000000000000003030000000000006
:103A600000000000806018040060180601000000DB
:103A700000E010080810E000000F102020100F00D8
:103A8000001010F8000000000020203F202000005F
:103A900000700808088870000030282422213000B7
:103AA00000300888884830000018202020110E00BF
:103AB0000000C02010F8000000070424243F240068
:103AC00000F80888880808000019212020110E003D
:103AD00000E0108888180000000F112020110E004F
:103AE00000380808C83808000000003F0000000047
:103AF0000070880808887000001C222121221C0008
:103B000000E010080810E0000000312222110F0030
:103B1000000000C0C00000000000003030000000C5
:103B20000000008000000000000080600000000035
:103B3000000080402010080000010204081020004E
:103B40004040404040404000040404040404040099
:103B5000000810204080000000201008040201002E
:103B6000007048080808F00000000030360100002E
:103B7000C030C828E810E0000718272423140B00E1
:103B80000000C038E0000000203C2302022738205B
:103B900008F8888888700000203F202020110E003F
:103BA000C030080808083800071820202010080036
:103BB00008F808080810E000203F202020100F001F
:103BC00008F88888E8081000203F202023201800EB
:103BD00008F88888E8081000203F20000300000053
:103BE000C03008080838000007182020221E0200F4
:103BF00008F808000008F808203F210101213F20B3
:103C0000000808F8080800000020203F20200000DD
:103C100000000808F8080800C08080807F000000CD
:103C200008F888C028180800203F20012638200006
:103C300008F8080000000000203F2020202030006D
:103C400008F8F800F8F80800203F003F003F200087
:103C500008F830C00008F808203F200007183F008F
:103C6000E01008080810E0000F10202020100F00BE
:103C700008F808080808F000203F210101010000B1
:103C8000E01008080810E0000F18242438504F00F6
:103C900008F8888888887000203F2000030C3020B6
:103CA00000708808080838000038202121221C00F4
:103CB000180808F8080818000000203F200000003D
:103CC00008F808000008F808001F202020201F0026
:103CD0000878880000C83808000007380E01000086
:103CE000F80800F80008F800033C0700073C030050
:103CF000081868808068180820302C03032C3020B6
:103D00000838C800C83808000000203F2000000024
:103D100010080808C838080020382621202018007C
:103D2000000000FE020202000000007F4040400050
:103D3000000C30C000000000000000010638C00088
:103D400000020202FE000000004040407F00000030
:103D50000000040202020400000000000000000055
:103D60000000000000000000808080808080808053
:103D7000000202040000000000000000000000003B
:103D800000008080808000000019242222223F2031
:103D900008F8008080000000003F112020110E0074
:103DA0000000008080800000000E11202020110003
:103DB000000000808088F800000E112020103F20B5
:103DC0000000808080800000001F22222222130039
:103DD000008080F0888888180020203F2020000084
:103DE0000000808080808000006B94949493600039
:103DF00008F8008080800000203F210000203F2044
:103E000000809898000000000020203F2020000043
:103E1000000000809898000000C08080807F000033
:103E200008F8000080808000203F24022D30200010
:103E3000000808F8000000000020203F20200000BB
:103E40008080808080808000203F20003F20003FD5
:103E50008080008080800000203F210000203F20E3
:103E60000000808080800000001F202020201F0094
:103E7000808000808000000080FFA12020110E00C3
:103E80000000008080808000000E112020A0FF80B4
:103E9000808080008080800020203F212000010061
:103EA00000008080808080000033242424241900B6
:103EB000008080E0808000000000001F20200000C3
:103EC0008080000000808000001F202020103F2004
:103ED000808080000080808000010E300806010094
:103EE00080800080008080800F300C030C300F0039
:103EF00000808000808080000020312E0E31200064
:103F0000808080000080808080818E701806010093
:103F100000808080808080000021302C22213000B1
:103F200000000000807C020200000000003F4040D2
:103F300000000000FF00000000000000FF00000083
:103F40000002027C800000000040403F00000000B2
:103F5000000601010202040400000000000000004D
:103F60000000000000000000010203040607080929
:103F70000000000001020304983F00080000002038
:103F800050160000E6040008BC4900085016002046
:103F90009808000010240008021D000120091830B4
:103FA00070E00080001001300490F03008500410E0
:103FB00018101E10170C18783000C03C03040404BD
:103FC00084E47C1F8704040C3464840E4306043F9D
:103FD000100C40C0F0FC2710100804C3610E400E06
:103FE000FFFF0120C0C0010366CE8C0C0821100425
:103FF0001E3F2148100A060703101030703F1F545F
:10400000630707055183F004FCF80897428080227B
:10401000020143FFFF0722066242010173FFFF3FD7
:1040200033E07F4C32E01261174120200F40201016
:104030000C070104080818381C0F0312433F040141
:1040400007113F3F0C34041CF8F81263F0E08021A4
:104050004A33FE82011007C28202023FFF05600957
:10406000020282F2E34303022021D430050000C0A3
:10407000FFD730063FF8E0F03C6B21C2201440200F
:1040800018070100000101030707232010180C0680
:10409000030C30060E1C18383C8182800104041683
:1040A000C0C0800D41CD32080133FF1F076004F806
:1040B000FC08401408C0C07F7F202020BA440500BF
:1040C00080F03F5832808E117A11703188117D1244
:1040D000087D114525886804303F0F001310E03C2F
:1040E0003005F02000F00826E0D373808087119817
:1040F00042FF0432FF08110D4564758047F83F7692
:1041000067FF7F7672800A24060040300E037D1818
:10411000055F300C03635177790A213F2AF0791A41
:10412000F06621B6E007C0783C186080FB200418D8
:1041300067C1C148102C26232120E0E0202133262E
:104140000C1C3838A36819FFFF202060E0713F0C79
:104150000404C4E4440404FFFF042444C48406A00B
:10416000367F672710087A39823110880501030FDE
:104170000C806005C0F83C088A4D0003110C69886A
:1041800034056038FEFB6B337F3FAA31B0693E4394
:104190000201A339A0280B82C2723E0EFFFF061A4D
:1041A000622B792021831E202103730603903006A1
:1041B0000103060E0C817240017006C0F07C584865
:1041C0000E9C046060400C034807F0F0380E0709AD
:1041D00000500888884828381C185C21592E020D88
:1041E0000371BB4FFF11C2037DC30375052DE403AB
:1041F00015790910F743FCF81D51DD7C071010D02C
:10420000F830108003280882FAFFFF42C283EF18BB
:104210000CFF7F800020703C2F2320E03245E137E7
:104220000C07A42810030700C07E0F00031C30E019
:10423000C0E0381EF6A17F1D88032B462184150798
:1042400011FE15C0DC04181010FF031404E0C04078
:10425000E71004202030BD8218801007E2FFFF2203
:10426000C283803806FFFF0838C8FD4004C8F81C28
:104270003320068040380E037F4F01070704BC0837
:10428000031CF0E0B81E074B04277F7F801405262F
:104290001310082C1D03032D8003193F61801404A3
:1042A000E07C18FEB004808020014230E01DC00395
:1042B00016035F1D71045C0681810002FC3D045CF5
:1042C0000404FCFEFF042D8B041C0881FF3F1161D8
:1042D000C1816903263FF95C050202C2F286036DC3
:1042E000810429722E175805221706A71817A04215
:1042F000E0701D7F03318C490477C0E0FF4A3F74B2
:104300001D3A05156B9C0A01028CF060F0DC8703F6
:104310009E042519196F2212DF3BFE0B263C06096D
:10432000FFFB0E0EA00414040C0F0F723C040302DA
:104330000107044B003F449E08FE048805081070E6
:10434000E089A804FCFC48803E0400062008807830
:10435000242020A22201233F3F06340523A322303C
:104360002111AA3804C0E07CD98004FFFF91011517
:104370003271C0BA3F84CDFE030D840004011F01D9
:10438000180780C0E0703038962E182E07AFE0C0B6
:104390003D03B806C0F8FEFF1FEF6006030FFFFEE7
:1043A000F824EC06FCFFFFFF03740719526FFFFCB3
:1043B000E0049DCA069DF6047D6005B4060F7FFFEC
:1043C000FFE013900700E0FEFF7F0F4E2009030778
:1043D0000F1E383070600100094A30381C1F0F036F
:1043E0000100016DA0060C0413E0F0F843084D92A3
:1043F00007021403CB0113D5014C2031F9100470CE
:10440000787F01467806014CFF77C0E0FF161868F8
:104410009C04F0E0C0A30616F8CCBAF112870003A2
:10442000DF2DEC0511019D0E0508091380C0F0FE7B
:104430007F3F0F0165E405381C0E07BD117FF2F0C8
:10444000185FF0F0DB05C0077C7E7F7B7978011177
:1044500014064B7F003F6030940511FED238FE1DDC
:104460005209AC053E7F7F38510AA207FEC9451D9F
:104470002D0408081560783E1F0F070145152C1DF7
:104480009D058C047CF8F063031975C404F8F8F0FA
:1044900012157371E1680601070F1F1FFE1D00034F
:1044A0000C064D30381E0F0701039D2B080C041419
:1044B000E0F8F805030C071300C0F0781E070503A9
:1044C00015F31D12070E1203F003411B0A1701E535
:1044D000E203012D1A0451150D1105032F6070051B
:1044E000030D4E0403DBF8F861B77878F20A1CFF7D
:1044F0006E1804FEFF80DA200438181C01CC063C3C
:104500003C78F8F04205E1CB1B010F427D6A04C400
:1045100007F0F8FCFCFC786A1900AE1FFE041900D5
:104520006A30002B383C00054DF71D0106195A5D15
:104530000204BEF00104CC0580F0FCFE71057C0590
:10454000070F0F0FDE0C1EF000063E01420415039C
:104550002101B378704025D0DE1EF4031D41065FB3
:10456000FFFEE10317033F0CEA806BA5011DD00895
:104570007C040F1F3C02035D01030548FE2D8003F0
:10458000D90119117901CF383FCE030C061580E00F
:10459000781E0780060C061680E0FC7F0F9C063D07
:1045A00049070117B80F1CC0FE1F062A3FF90E531A
:1045B0003FF4032D81050D1800062DE1070F198327
:1045C000000006159E1F3F7ED3041EF039081EC052
:1045D0004C058C0670381E1F0FC1091AC0E12E3E13
:1045E000DE052DFE042DCC049C043EFEFC00051DC2
:1045F000FE07E6FFFFDE0300051DFE077D01053E09
:10460000700108074E0701008DFF06CD00061EE071
:10461000E108DDCD06A006031FFFFCF0C0EAC006DE
:10462000AD050529BE20063F3C787870012C07387F
:10463000381C1E0F03E0038DA10A1D3606B172A8B7
:1046400005C0F8FF7F285C06071F3F3F3FFD081DA0
:10465000FE080D2AFD052C262030AC633000FC84BA
:104660008484FE8283828000226722121200FF402F
:104670002000010E3040F80002E222223EFE0E2C05
:1046800005A0908886160F1C054382423EF0041C4C
:104690000840210608102040FF0A3F42CC3A0B3E5A
:1046A000FFC80D3DE70A8F201086101C0C90523475
:1046B00010FF10345280708FB20F1C0A0800829ACB
:1046C000566322528EB70C3C05330C3340EF0F4338
:1046D000FE92013EFE4D111C06424458407F000CE4
:1046E00030067F4050484660210132C20611601DED
:1046F000C70C1E069F0F2D600F10050204083030F6
:10470000100A2410FF00844444447F041004040071
:1047100022BF10150AFE42270A1222324A424200E4
:10472000001715D55557557D043C04D51517E50BD5
:10473000437F550121661E002B0B1C0784649C409F
:10474000300F570D1E28530E115F100B01824C20A5
:10475000180601061820A031E0100500FC04020430
:104760002E04B10A1C0F40201F20404F4442407FBE
:10477000424443401D0F1009F80704E4242424FF99
:10478000042EE4720F2C0DFF0080814529112F416A
:1047900041818101112EFE350C41053D4D0F2E1F2B
:1047A000290F70077F020242827FF121F23C045000
:1047B00048C64E127244012D4A101C080808E82908
:1047C0002E28E8F10D130C0B062D6D111C04094960
:1047D000896910460F052C0D1060028C00FE02F254
:1047E00002FE00F884102C0D04047E018047300F77
:1047F0001027004786101DDA1043BEAA011EBE22F4
:10480000112DCF1012AF0C12FF1026AFCF51C120C7
:1048100006A4A4BFA4A4BF1DAB1115CA237F4A01DF
:10482000467FD0DAC0BD9F30300E086C1E88681FEE
:10483000C80810C85452D1129408D01000091909A0
:10484000FF0500FF1292FF005F80A2086C0501E2E5
:104850001CE04D102D0F0E2D1C122C04030C306685
:1048600011093E800921600D1BFC132D2F1014101F
:104870009020988888E98E8888A89800024281361E
:104880005C0980844B28102847807E132702FEAFE6
:10489000210B6DF1123D77047E06010A3004383495
:1048A00002040D16390C7101FDB90B1C104030EFDC
:1048B000242480E49C105454FF547C102813040ECC
:1048C000407F21512618274445455F454544E03047
:1048D000050020160E040514001C04048484FD0346
:1048E0002D840321031D10045C0760201F1010405D
:1048F00050036DE0038C0820900C030C9020E00323
:1049000044083F444241404070402811105020F874
:104910004F4849FA484808000444827F442D290F33
:104920002F2222D10F5E7EDF031C04929E805B1338
:104930002D79142C080C34040444847F4A10091F78
:10494000801D5F0F2C055F5555D5B0032E5FB0035A
:10495000680E20603F251515FF904729112D434013
:104960001D57142C05A744A4144F123940240902E2
:1049700001212444489101B01409222C2020FF2059
:1049800028263F25402C07028242221A0783035D16
:104990004103180EFC2024A8FFA82400FC4444C4B2
:1049A00042F08C0A3F2221202F20A3601F49152DA1
:0C49B0003F147D4B1200040024F40000B2
:04000005080000ED02
:00000001FF
